:020000040000FA
:1000000000450020D51E0000A7670000C11E0000AB
:10001000C11E0000C11E0000C11E00000000000043
:10002000000000000000000000000000B11F000000
:10003000C11E000000000000C11E0000C11E000023
:100040004921000049210000492100004921000008
:1000500049210000492100004921000049210000F8
:1000600049210000492100004921000049210000E8
:1000700049210000492100004921000049210000D8
:1000800049210000492100004921000049210000C8
:1000900049210000492100004921000049210000B8
:1000A00049210000492100004921000049210000A8
:1000B0004921000049210000492100004921000098
:1000C0004921000049210000492100004921000088
:1000D0004921000049210000492100004921000078
:1000E0004921000049210000492100004921000068
:1000F0004921000049210000492100004921000058
:1001000053B94AB9002908BF00281CBF4FF0FF317E
:100110004FF0FF3000F00CB8ADF1080C6DE904CEE3
:1001200000F008F8DDF804E0DDE9022304B07047D0
:10013000704700BF2DE9F04786468C460846089E6A
:10014000154674461946002B40F0C2808542B2FA2B
:1001500082F245D94AB1C2F1200300FA02FC2EFA1C
:1001600003F3954043EA0C0C94404FEA154EA8B2B5
:10017000BCFBFEF8230C0EFB18CC08FB00F943EA8D
:100180000C43994528D9EB1808F1FF3704D299455B
:1001900002D9A8F102072B44A3EB0903A4B2B3FBD5
:1001A000FEFC0EFB1C330CFB00F044EA0344A042AF
:1001B00014D92C190CF1FF3304D2A04202D9ACF1AE
:1001C00002032C44241A43EA07401EB1D440002302
:1001D00034607360BDE8F0874746DDE76346F1E7CA
:1001E00092BB431B01214FEA154EAFB2B3FBFEFC9D
:1001F000200C0EFB1C330CFB07F840EA0343984528
:1002000062D9EB180CF1FF3004D2984502D9ACF159
:1002100002002B44A3EB0803A4B2B3FBFEFC0EFBCD
:100220001C330CFB07F744EA0344A7424ED92C19B0
:100230000CF1FF3304D2A74202D9ACF102032C44E3
:10024000E41B43EA0040C0E7C2F1200320FA03F1B7
:10025000954090402EFA03F303434FEA154EAFB298
:10026000B1FBFEFC0EFB1C10190C0CFB07F841EA5D
:100270000041884504FA02F422D969180CF1FF30D4
:1002800004D2884502D9ACF102002944A1EB08014F
:100290009BB2B1FBFEFC0EFB1C110CFB07F743EA03
:1002A00001439F420ED9EB180CF1FF3104D29F425B
:1002B00002D9ACF102012B44DB1B41EA004192E779
:1002C0006046E3E76146F7E76046A3E76346B7E7C2
:1002D000834206D916B9002108467BE7C6E900E04B
:1002E000F9E7B3FA83F78FB9834201D3724508D88F
:1002F000BEEB020460EB030301209C461EB9002103
:1003000068E73846FAE7C6E9004CF8E7C7F1200C81
:10031000BB4022FA0CF41C432EFA0CF120FA0CF329
:10032000B84001434FEA14490EFA07F5B3FBF9F858
:100330001FFA84FE09FB18300B0C08FB0EFA43EA87
:1003400000439A4502FA07F240D9E31808F1FF305A
:1003500004D29A4502D9A8F102002344A3EB0A0370
:1003600089B2B3FBF9F809FB183308FB0EFE41EA2A
:1003700003418E452CD9611808F1FF3304D28E4514
:1003800002D9A8F10203214443EA0040A0FB0298ED
:10039000A1EB0E014145CE46434602D306D14D4561
:1003A00004D2B9EB020E68EB04030138002EA6D08C
:1003B000B5EB0E0261EB030101FA0CFC22FA07F324
:1003C0004CEA0303F940C6E9003198E74046C5E727
:1003D0004346D9E7F0B5334B334AC3F800263348D8
:1003E000C3F8042687B0C3F808264921C3F80C26B1
:1003F000C3F81026C3F81426C3F81826C3F81C2621
:1004000006F02AF905F0D6FC03A800F0B7FC284B4B
:100410001B68834204D02748452106F01DF9FEE7FA
:10042000059A2548492106F017F9039923484B7D81
:100430000A7DC98A0091492106F00EF92048492118
:1004400006F00AF94FF44041002006F01EFC044675
:1004500020B11C48452106F0FFF8FEE702A99DF8EF
:10046000100000F033F8029B059D1D44039B1E897C
:1004700002F09EFFAF1900F0DBFF00F0AFFF01F0CC
:1004800053FDAB5983F3088884F31488BFF36F8F4F
:10049000BFF36F8F7B6898470B48452106F0DCF867
:1004A000FEE700BF000001403546526E9676000020
:1004B00080060020AF760000D276000001770000B1
:1004C0001F770000447700007777000008B50246E8
:1004D00038B105480023452106F0BEF86FF015003D
:1004E00008BD0860FCE700BF9A77000021B1012930
:1004F00006D06FF015007047044B53F8300070477A
:10050000024B03EBC0035868704700BF48730000FC
:100510002DE9F04F9B46DBB0844B679F1E6802902D
:10052000DDE9658915460C4600F022FF804B01226B
:10053000C3F800253AA804F061FBB8F1000F07D01A
:10054000B9F1000F04DD4A4641463AA805F073FFB1
:1005500023896289D4F80CA013449A444FF0000810
:10056000C2456CD80DA93AA804F0BAFB704B002222
:10057000C3F80025C3F8002527B120220DA938466D
:1005800006F062F9002300932A464FF6FF732146D6
:1005900007A805F010FC0746002861D102980C9CC2
:1005A000294600F087F984425AD8DFF890B1DFF885
:1005B00080914FF0FF340DF1160305AA06A907A894
:1005C00005F047FC00284BDB40F0A980069907A8FE
:1005D00005F08BFC50B9BDF81600564A4FF6FF7176
:1005E00032F8023B8B423BD09842F9D1BDF816A0BD
:1005F000BAF1100F3ED0BAF1220F73D0BAF1010F49
:10060000D9D1BDF81430202B2AD806993AAA284609
:1006100006F030F8044618BB9DF814300293202BE6
:100620000AD8DBF80030DFF818810393039B9C4263
:1006300037DB0023C9F800354FF0FF34BBE7649B7C
:10064000AAEB0809994528BF99464B465A464146A8
:10065000284606F00FF830B1354B0022C3F80025CC
:10066000324B1E685DE04A4659463AA805F0E3FE63
:10067000C84475E7BDF81470202FF1D106993B46A8
:100680003AAA284605F0F6FF0028E9D13A463AA9E9
:100690000DA805F064FC284B1B688342E0D10127BC
:1006A00089E700F065FEC9F800A51DA804F0A6FAC8
:1006B000D8F8042058F8081B12681DA805F0BBFEE6
:1006C00015A91DA804F00CFB0022C9F80025029A08
:1006D0003AA915A806F0A8F810B9C9F800056AE704
:1006E0000134A3E7631C3FF466AFDBF80030A3429C
:1006F000A2DDBDF81430802BB2D806993AAA28465C
:1007000005F0B8FF0028ABD1E4B2BDF81430009476
:100710003AAA20210DA800F015F806468CE7002F14
:100720009ED030465BB0BDE8F08F00BFC40400200F
:1007300000A0025068760000800600205073000080
:10074000547300002DE9F04796B016461D469DF8FB
:100750007820374BDFF8E88053F83210019103EB33
:10076000C20307465B68D8F80090186802AA0144E3
:10077000302301A805F0EDFD002851D1DDE901434A
:100780001C4403AA06AB214601A805F00AFE002876
:1007900046D1049A072A43D12649059806F044F821
:1007A00000283DD1079A082A3AD12349089806F033
:1007B0003BF8A8BB02AA214601A805F0DEFD78BBE4
:1007C000DDE901A30AEB0302944229D1412B27D191
:1007D0003544302303AA294602A8029605F0B9FD44
:1007E000E0B9DDE9023213449D4217D32A4602A93B
:1007F00006A805F088FB88B92A4602A90EA805F0CC
:1008000082FB58B99AF80030042B07D1202306AA9E
:100810000AF10101384600F0C3FD28B1D8F8009074
:10082000484616B0BDE8F087044BD3F80090F7E7D0
:1008300054730000C9770000C077000080060020D4
:10084000C4040020094A0B78400052F820108B4263
:1008500009D0013052F82000834214BF4FF0FF301E
:100860004FF4C07070474FF4C07070475C73000065
:100870001FB5582303FB01006A46046AA1681023D0
:100880001039204605F0F6FE034640B122780748AD
:10089000452105F0E1FE0024204604B010BD0449C6
:1008A0001022684605F0C0FFF6E700BFD1770000D0
:1008B0008676000013B508460C4605F057FB6A46DD
:1008C0000146204605F05DFA30B10448452105F0A7
:1008D000C3FE002002B010BD0098FBE7FD770000CA
:1008E0002DE9FF412C2707FB010704463D6A2846F6
:1008F00090460E4605F009FF7B1EFA1C13F8011FF7
:10090000814224D19A42F9D1BEB12946204605F050
:100910001EFC98F80730042B0AD1216A204605F006
:1009200016FC024648B92348492105F095FE04E02B
:10093000002002F0E9FD0428EFD01F4B186804B036
:10094000BDE8F0811D4B186825E01D4A2FE02C23DF
:100950007343E1180869C206D6D4E258194B9A428B
:10096000F0D1CA680B899B18ECD24A89D218E9D217
:10097000AB689A42E6D240F60C630340E2D1CDE97F
:10098000023301934FF4807300932A460E4B39468D
:100990002046FFF7BDFD0D4B1B688342CFD0002ED4
:1009A000D3D0AA680021284605F08EFE084A0948DF
:1009B0004521BAE74A780000C0040020C4040020A2
:1009C000387800003DB8F396B01300208006002070
:1009D000407800008978000073B50D460446002178
:1009E0002846CDE9001105F071FB28B323681A4EA3
:1009F000B34203D101AA204605F0E0FAE36AB3420C
:100A000004D16A460121204605F0D8FADDE900321A
:100A1000934288BF0193019BAB60019A294620460F
:100A200000F0A4FB0D4B1A68002A03DD0C48572187
:100A300005F012FE02B070BD01462046FFF718FF18
:100A400005F10801064605F09CFAAB6801933046B3
:100A500005F00FFEE1E700BF3DB8F396E412002079
:100A6000B17800002DE9F84FDFF878B01B4C1C4D31
:100A7000884691469A4600260B9B9E4201D3002051
:100A80000FE00B9B174A9F1BB7F5806F28BF4FF4F1
:100A900080673B4606EB0A01404605F0EBFD10B1CE
:100AA0000120BDE8F88F0A993B465A46711848461E
:100AB00005F0F5FD0028F3D1C4F800563E44C4F813
:100AC0000456C4F80856C4F80C56C4F81056C4F8B6
:100AD0001456C4F81856C4F81C56CDE7000001405F
:100AE0003546526E84060020F0B59B4B43620E469D
:100AF00003F580630021036589B004460846FFF7CB
:100B0000F5FC04F120010546C0B201F033F80346BC
:100B1000E8B90121FFF7EAFC04F14C010546C0B237
:100B200001F028F80346E0B9204605F0A5FA05468D
:100B3000C8B900221146204605F088FA054660B380
:100B400086480022572105F087FD01239EE0002200
:100B5000CDE90023824800232A46452105F07CFD8B
:100B6000FEE70122F4E77F488022572105F074FD5B
:100B700001239D4284F85830DBD194F858308DF829
:100B80001730042B00F28580012B00F2898000F0E1
:100B90009C80FF2384F8583097E0204600F0F0F95D
:100BA0000028D2D004A805F088FA0146204605F0B6
:100BB0001AFB18B16C482A465721C4E704A805F06F
:100BC00085FA80F0010104AAC9B2204605F03EFA78
:100BD00002460028B4D104A805F078FA054660BBA7
:100BE00004A92046FFF7F8FE9DF8173084F8583026
:100BF000033B012B06D8284600F0E6F810B1FF238E
:100C000084F858309DF81730023B022B0BD8002097
:100C100000F0C4F838B1FF2384F858305348452118
:100C200005F01AFDFEE794F85830FF2BF6D00022AD
:100C30001146204605F00AFA87E79DF81770012F44
:100C400018D1104602F060FC831E022B05460ED818
:100C500004AA39462046FFF743FE454B1B689842DD
:100C600005D0444B1D68A84214BF0525012584F812
:100C7000585082E7012104AA2046FFF731FE3C4B81
:100C80001B6898420CBF9DF81730052384F8583034
:100C900073E7052B7FF47DAF002000F095F811E09D
:100CA00004A92046FFF798FE94F85830DA1E012A6E
:100CB00014D8002000F088F800287FF46AAF0020E4
:100CC00000F06CF800287FF464AF94F85830FF2BE4
:100CD00007D12648452105F0BFFCFEE7022BF4D1E1
:100CE000EDE70022012B244D039214D0114620463B
:100CF00005F0ACF978B12D68102200210DEB02004F
:100D000005F0ADFDE06C05F0B4FC206A05F0B1FC27
:100D1000284609B0F0BD002211462046FFF7E0FD4D
:100D2000134F3B689842E6D12B689842E3D0114BB1
:100D30001B689842DFD0039B01330393039B012B75
:100D400000D0FEE7206A05F01AF83071236A5B686C
:100D500034603D68B360CFE7840A00206F790000FB
:100D6000E07800002D7900009B790000C579000033
:100D700080060020C0040020C404002038B5064DC1
:100D8000044660220021284605F069FD21462846D8
:100D9000FFF7AAFE38BD00BF8412002013B5094B2F
:100DA00001A913F8300000F0E5FE48B9019806F0FB
:100DB00025F80446019805F05CFC204602B010BD01
:100DC0000124FAE7647300001FB50F4B01A913F863
:100DD000300000F0CFFEA8B9019802A902F03EFB56
:100DE000044668B99DF80B30032B03D1019805F038
:100DF000D3FF0446019805F03CFC204604B010BD2A
:100E00000124F7E70124F8E7647300002DE9F341BA
:100E100006460C4617461D460BB9002121E0184630
:100E200005F054F901460028F7D13046FFF720FDC0
:100E300018B9012002B0BDE8F08101A905F0A1F8C0
:100E40000028F6D10199304605F01AFA736A5968FC
:100E50006B79012B18D1002CDFD12B68834298BF0E
:100E600000212C2303FB04663A46306A202305F058
:100E700001FC0028DDD1002DDCD038680D4BC01AF4
:100E800018BF4FF0FF30D5E7022BC6D12B68012BDE
:100E900005D98342C1D8B4FA84F46409BDE7BCD152
:100EA000002CDED0012CB8D12C79023C18BF0124D3
:100EB000B3E700BF3DB8F3962DE9F04F074685B084
:100EC0000C46014600201646FFF7BCFC051E50DB11
:100ED0003846E46D05F04AF85FFA84F96B1E09FBA9
:100EE00003084FF0000A4FF0010B4FF0FF349DB99B
:100EF000BAF1010F03DD2148452105F0ADFB631C6C
:100F000006D07F2C2ADC013440F201133460B38018
:100F1000284605B0BDE8F08F6B1E00930DF10F025F
:100F200001234146384605F0A5FB031E019322DB51
:100F300001220DF10F01384605F0C9FE019B40B1B9
:100F40005B4501D00AF1010A009DA8EB09089B4608
:100F5000CDE7B4F1FF3F08BF2C46F5E70223803C04
:100F60007371631004F00104013301343360347190
:100F7000CEE70725CCE70125CAE700BFD1790000FD
:100F8000F8B5866A456D044605F069F9AE420AD0A7
:100F90006B1CB34207D0834205D01748572105F098
:100FA0005BFB0020F8BD802E19D914485721F6E7C5
:100FB000626A02EBC3025768226D02EBC3025268F9
:100FC000974202D00E485721E9E701339D42EFD105
:100FD000204605F04BFA28B90A485721DFE70023DD
:100FE0001F46F3E7AE4205D9636A03EBC5035B68AE
:100FF000BB42E7D10120D5E7F47900002C7A00004C
:101000005B7A0000877A000010B588B0044604A916
:10101000006A02F023FA9DF81020012A40D0254BE7
:101020002549032A08BF0B469DF8132002929DF81C
:10103000122001929DF81120204800924921204A57
:1010400005F00AFBE06C06A902F008FA9DF81820EA
:10105000012A27D0174B1849032A08BF0B469DF8D1
:101060001B2002929DF81A2001929DF819200092EF
:101070001248144A492105F0EFFA9DF81030012B6F
:1010800012D19DF81230032B0ED19DF81830012B90
:101090000AD00D48492105F0DFFA022008B010BD42
:1010A0000A4BC1E7094BDAE70948492105F0D4FAB0
:1010B0000020F3E7C07A0000C97A0000DD7A000062
:1010C000CF7A00001E7B00002E7B0000C47A000057
:1010D0004D7B000070B54B6814461E4A03F0FF2399
:1010E000934286B006460D462FD10B68012B2CD1BA
:1010F00004A9204602F0B2F99DF81020012A26D05A
:10110000154B1649032A08BF0B469DF8132002927F
:101110009DF8122001929DF8112000921048114A6A
:10112000492105F099FA9DF81030032B0DD1214685
:10113000304605F00CF8204605F02EFEA968204642
:1011400004F02DFF204602F069F906B070BD064B91
:10115000DBE700BF00010004C07A0000C97A00008C
:10116000DD7A00001E7B0000C47A00002DE9F04FFC
:10117000164689B005460C467448492105F06CFABC
:101180003146284605F07CF86B6A824620465E6848
:1011900004F09CFFE8B1E86D04F0E3FEAF6A0023C1
:1011A000013F3344984201D9013FFAE7BA4510D3D1
:1011B0006748572105F050FA07FB06F365480AFB1C
:1011C0000662572105F048FA0123E37109B0BDE832
:1011D000F08F06A9022000F0CDFC07A9052000F041
:1011E000C9FC079A21462846FFF774FF6379012B53
:1011F0004BD1DFF864B1574641E02268C2F10103E8
:1012000053449F423AD86B6A196853F8370003EB8E
:10121000C703012A53F8083CA3EB0103A0EB010923
:10122000049311D1079B0393E368022B08D0414636
:10123000284604F08CFF22464146284604F0B4FFBD
:101240000399284604F083FF32464946404604F09D
:101250007CFF049B42464146CDE900962846FFF7B5
:1012600001FC2146284604F03EFF23680133236039
:1012700020B1DBF800300133CBF80030013FDDF85E
:101280001880002FB9D10123236002236371012745
:10129000BA45DDF8189006D2484605F0EAF90798F5
:1012A00005F0E7F992E723689F424DD36A6ADDF8BB
:1012B0001CB052F837100491FB00083B11680391F1
:1012C000D1582A6DD0581368A0EB03082379012B5D
:1012D00038D1039B3246C91A4846059104F035FFC0
:1012E0000599009143464A46594601962846FFF71C
:1012F000B9FB2146284604F0F6FE0223237118B1FB
:10130000154A13680133136032464146584604F0CB
:101310001CFFDDE9032349469B1ACDE900865A46A6
:101320002846FFF79FFB2146284604F0DCFE236891
:10133000013323600123237130B1074A136801335D
:10134000136001E0022BDFD00137A1E7647B0000CE
:101350008D7B0000BC7B0000E41200200A4619B11E
:10136000024B00211B681847704700BFC8040020CB
:1013700070B5094D2B780BB1002070BD074C0126CC
:10138000C4F8006503F0DCFC18B92E70C4F8000541
:10139000F2E74FF0FF30F0E7B014002000A0025059
:1013A0002DE9F041DFF83080ACB01F4606460C4610
:1013B0001546FFF7DDFF0123C8F800352A463346FE
:1013C0000097214603A805F02BFE0023C8F800353E
:1013D0002CB0BDE8F08100BF00A00250BFF36F8FBA
:1013E00072B6124B4FF0FF32C3F88020C3F884204E
:1013F000C3F88820C3F88C20C3F89020C3F8942049
:10140000C3F89820C3F89C20C3F88021C3F8842136
:10141000C3F88821C3F88C21C3F89021C3F8942124
:10142000C3F89821C3F89C21704700BF00E100E099
:10143000F8B5254B254D4FF0FF3401275F60C3F809
:101440004843C3F8084303F5C04300265F60C3F870
:101450004843C3F8084303F5983302205F60C3F89C
:101460004843C3F80843C5F8084300F0C1FD6F6066
:10147000C5F84C61D5F84C31C5F81061D5F810317C
:10148000C5F84461D5F84431C5F8006505F518354F
:101490002820C5F8084300F0ABFD6F60C5F84C612B
:1014A000D5F84C31C5F81061D5F81031C5F8446154
:1014B000D5F84431064BC5F80065C3F808454FF030
:1014C0008043C3F80843F8BD00B00040002000404E
:1014D00000F00140014B1B68184700BFCC040020FE
:1014E000014B1860704700BFCC04002007B50B46C5
:1014F000002102460091034800F006F803B05DF8B1
:1015000004FB00BFD51400002DE9F04F8DB01D463F
:10151000531E8246019103934FF00009039B5878B4
:10152000252803F1010419D11E4600204FF0FF3891
:10153000023603460290444631780396392954D83E
:101540001F2914D8002900F0EE8101992520D047E9
:1015500001993078D04709F10209DFE7002800F04F
:10156000E2810199D04709F101090394D6E7A1F17D
:101570002002192AE9D801A757F822F0E515000042
:101580004B1500004B150000E51500004B15000041
:10159000651600004B1500004B1500004B150000B0
:1015A0004B150000B1160000E51500004B150000BA
:1015B000C5160000711600004B1500007F160000D4
:1015C0009F1600009F1600009F1600009F16000047
:1015D0009F1600009F1600009F1600009F16000037
:1015E0009F16000008460136A6E7582900F0EB8058
:1015F000A1F16302D7B2172FA7D8172AA5D801A740
:1016000057F822F06D180000EB1600004B15000093
:101610004B1500004B150000CB160000EB16000028
:101620004B1500004B150000CB1600004B150000B9
:101630004B1500004B150000A11700004B150000D2
:101640004B150000411800004B150000EB16000080
:101650004B1500004B150000A11700004B150000B2
:10166000CB16000001992520D04709F1010955E763
:10167000029A02F0FE0202924FF00008B3E7002C3B
:101680000DDAB8F1000F0DDA029A002A00F043815A
:1016900024EAE4740A2202FB0414303CA3E7B8F104
:1016A000000FF5DB0A2202FB0812A2F130089AE7CC
:1016B000B8F1000F55F8042B80F22F81002A80F238
:1016C0002E815442022202928DE7682903D1682BB1
:1016D00006D1482387E76C2902D16C2B00F02181C9
:1016E000002B7FF432AF0B467DE77A2B06D17529AC
:1016F00055F8046B14D14FF0000B0CE06C2BF6D0B6
:101700004C2BF4D1073525F007037529D3E9006B7D
:1017100003F1080506D120283BD1854F013C09E0A3
:101720004FEAE67BBBF1000FF5DA7642814F6BEBB7
:101730004B0B013C0DF12D03059300230493304620
:1017400059460A220023FEF7DBFC059B303203F8E2
:10175000012DB4460593049B5A46BCF10A0F8B46F3
:1017600072F1000203F1FF3106460491E7D2C3F1A2
:10177000010B30330DEB0306B8F1000FA6F10406A0
:101780006DDA029BD9077DD4A8EB0B03A4EB0B0405
:1017900013E02B280ABF684F684F04F1FF34C9E7F4
:1017A00070290FD155F8042B0023FAB9634F644E0A
:1017B000053C6FF004034FF0050B029A920770D4BA
:1017C000A04666E078216C2B03D155F8042B00234A
:1017D00008E04C2BF9D1073525F007031D465B685F
:1017E00055F8082B232825D1880621D5554F023CD2
:1017F00001F06001A1F1390B0DF12D0E002602F070
:101800000F01092988BF594430310EF8011D102AF3
:101810004FEA121141EA03714FEA131C73F10003FE
:1018200006F1FF3008D2C6F1010B06F13003A1E743
:10183000454FDCE7414FDBE706460A466346DEE7F5
:1018400055F8046B304604F0E8FFB8F1000F83460A
:1018500002DB4045A8BFC346384F4FF00008A8EB55
:101860000B03002B92DDA4EB0804A6E755F8043B1C
:101870008DF81830314F013C4FF0FF334FF0010B22
:1018800006AE9AE7A046EAE7029301992020D047E6
:10189000029BB8F10108F7D524EAE472013C9144B7
:1018A000A41AB84606E0049302920199D047029A1E
:1018B000049B9046424612F8010B0028F3D11A46C9
:1018C000013A15D5002BACBFC7EB03077F425B463F
:1018D000013B15D5BBF1000FA8BF5F444F4426461E
:1018E000013E14D5002CA8BF3F1907EB080915E6E7
:1018F0000493029201993020D047049B029ADFE7BB
:101900000293019916F8010BD047029BE0E7019979
:101910002020D047E4E70122D5E6904663E614464E
:1019200061E64C235FE648460DB0BDE8F08F00BF8E
:101930004A7C0000487C00004C7C0000FC770000E2
:10194000547C00004E7C0000517C00002DE9F047E3
:10195000058B04462807904611D4022905F0070597
:1019600040F0CC80204604F09EFD78B10138218BF8
:10197000042811D8DFE800F0C2106D859500012918
:101980000CBF45F0100545F02005258388F311882C
:10199000BFF36F8FBDE8F08701F0070AAA4500F09A
:1019A000A5800027B9463E46A368002B00F0BC8006
:1019B00041F00801218388F31188BFF36F8FA1687C
:1019C000002900F0BA800D68002900F0B680D1F837
:1019D0000480334652462046C047002D76D02B68FF
:1019E00029461D46F0E701F007035A1F012A1BD8BC
:1019F000002221F00701062B276889B2C4E90022E2
:101A000009D13B4603E0628B013262831B68002BE5
:101A1000F9D141F002012183204604F044FD002861
:101A20007AD041F0200176E0042B0AD121F00701A1
:101A300089B22183204604F036FD10B141F0200127
:101A40002183218B01F0070AAA454FD00027B94610
:101A5000AAE7236921F0070141F00601062DD3F81A
:101A6000009021832DD1B9F1000F3FD041F0080142
:101A7000218388F31188BFF36F8F3A492046C84706
:101A800029E021F00701236941F0040189B2042D06
:101A9000D3F804902183E6D000273E464FF0040A95
:101AA00082E721F00701236941F0050189B2052D84
:101AB000D3F808902183D6D000273E464FF0050A80
:101AC00072E700273E464FF0060A6DE72B4687E790
:101AD000B9F1000FD1D1EFF31188202383F31288DD
:101AE000BFF36F8F238B23F008032383258BEA0634
:101AF0002ED525F01003238305F007056669218B99
:101B0000002EBFF670AF00232768C4E9003321F030
:101B1000070141F001012183218B01F0070AAA4549
:101B20004FF000097FF440AF002F9CD041F0080136
:101B3000218388F31188BFF36F8F002FC8D03D68D1
:101B4000394633465246204604F0D9FC2F46F4E786
:101B5000AB067FF51BAF25F02003238305F00705B7
:101B600000E700BF2B650000014B036000207047B9
:101B70007073000070B5104B1C680D46B4B10F4B6C
:101B8000196800238B4202DB6FF0010070BD224612
:101B900012F8106B864202D001331446F2E7E06877
:101BA00005F0DDF928B12C600020EFE76FF00C00A4
:101BB000ECE76FF01200E9E7D0040020707300003A
:101BC00010B588B0436802938368C068CDE90332DA
:101BD0000A680023CDE906230C4601AA04490593AF
:101BE00004F0FBFE079808B9059B236008B010BD00
:101BF0001967000008B5054804F048FC044804F0E3
:101C000045FCBDE80840034804F040BC5A7C000095
:101C10008B7C0000BE7C0000014802F041BD00BF8B
:101C2000F473000030BFFFF7FDBF00BF70B5264B57
:101C300015469A6A12F0100F9A6A14BF11241024E4
:101C400012F0080F9A6A18BF1224920706460AD5A6
:101C5000586B9A6A140634D519B19A6A22F0800238
:101C60009A62132401E06FF01500174B9A6A12F084
:101C7000010F9A6A18BF142412F0200F9A6A18BF35
:101C80001524D20602D49B6A9B070AD50E4B5B68CB
:101C9000190506D5314600F013FA10B180F3098812
:101CA0000224094B9A6A920642BF5A6A22F40052F1
:101CB0005A629A6A42F0FF029A6200232B70204611
:101CC00070BD6FF01500CCE700ED00E0134B9A6A91
:101CD00012F0007F9A6A14BF1E201D2012F0807F30
:101CE0009A6A18BF1F2012F4002F9A6A18BF212089
:101CF00012F4802F9A6A18BF222012F4003F9A6AC9
:101D000018BF232012F4803F9A6A6FEA02426FEAFA
:101D100012429A6218BF2420704700BF00ED00E015
:101D200010B5194B0246986A9C6A10F4805F14BF84
:101D30001720162014F4006F9C6A18BF1820A40501
:101D400009D5986B986A000404D51AB19A6A22F4EE
:101D500000429A6219200C4B9A6A12F4806F9A6AB8
:101D600018BF1A20D2050CD49B6A13F4005F18BF69
:101D70001C20054A936A43F47F43936200230B704F
:101D800010BD1B20F5E700BF00ED00E070B5454B2E
:101D90005B688AB00546C3F30803002686F3118802
:101DA000BFF36F8F02F07F40B0F17F4F11D102F08F
:101DB0000C0008280DD010074CBF0D46012600224C
:101DC000033B8DF80720032B05D8DFE803F01E5DE9
:101DD000615A3546F3E700249DF807309BB920226D
:101DE000294602A804F030FD099B002E54D0C3F30D
:101DF000080222B96FEA53236FEA4323099302A929
:101E0000204604F0C6FC0AB070BD264BDA6A910782
:101E1000E1D4DA6A002ADEDBDA6A5200DBD55A69DD
:101E2000A96942F480725A61BFF34F8FBFF36F8F7D
:101E30005A6931F8021C22F480725A61BFF34F8F45
:101E4000BFF36F8F4DF6027291420AD09A6AD2B2F6
:101E50004AB10DF1070201212846FFF7E7FE0446CB
:101E6000BAE72C68B8E79A6A12F47F4F05D00DF1F3
:101E700007010120FFF754FFF1E79B6AB3F5803FAC
:101E8000A9D3FFF723FFEAE70DF107020021E3E7FB
:101E90000DF107010020EDE723F4FF7323F00103A8
:101EA000ACE700BF00ED00E0044B5A6942F01002BD
:101EB0005A615A6922F008025A61704700ED00E049
:101EC000EFF30880EFF3098101B57246FFF75EFF7B
:101ED00001BD00BF002080F31488BFF36F8F0F484F
:101EE00080F3088801F0AAFB00200D490860BFF3C9
:101EF0004F8F00F02BF8202080F3118809484FF411
:101F00000461401880F30988EFF31480022108432C
:101F100080F31488BFF36F8F00F0A4F80045002011
:101F200094ED00E0C01400200749D1F89020002370
:101F3000C2F307221846934200DB7047C1F898307D
:101F4000C1F8A0000133F6E700ED00E008B572B675
:101F5000002383F31388FFF7E7FF144B4FF0FF32A2
:101F6000C3F88020C3F88420C3F88820C3F88C20ED
:101F7000C3F89020C3F89420C3F89820C3F89C209D
:101F8000C3F88021C3F88421C3F88821C3F88C21C9
:101F9000C3F89021C3F89421C3F89821C3F89C2179
:101FA00062B6BFF34F8FBFF36F8F08BD00E100E053
:101FB0001EF0040F0CBFEFF30880EFF30980816976
:101FC00011F8021C0229FFD001B5724604F0E7FBAC
:101FD00001BD00BF40B2002807DB044A41090123CC
:101FE00000F01F00834042F82130704700E100E01C
:101FF00040B200280CDB4309064900F01F002033E3
:102000000122824041F82320BFF34F8FBFF36F8F2F
:10201000704700BF00E100E0054B420900F01F00DF
:1020200053F82220012303FA00F01040704700BF4C
:1020300000E100E040B20028A8BF00F1604001F1DB
:102040000101B8BF064B4FEA4111ACBF00F561403A
:1020500000F00F00C9B2B4BF195480F800137047E4
:1020600014ED00E0144A08B5144B22F07F029A6088
:10207000BFF34F8FBFF36F8FD3F8882022F4700225
:10208000C3F88820D3F8882042F4A002C3F888203F
:102090004FF04042C3F83422BFF34F8FBFF36F8F2E
:1020A0000023E1EE103A02F0C9F902F00FFA00F055
:1020B0003FF802F0CFF900BF0000000000ED00E0A3
:1020C00010F1160F074B08D0984208D340338342D3
:1020D00005D98B4203D9044870474033F9E7002003
:1020E000704700BF001D0020401D002080B5154630
:1020F00006460C460022E1EE102A074F87F30988B6
:102100004FF0000005498847204629461A46B04747
:1021100003488047FEE700BF40450020BF6700003E
:10212000CD670000014B10221A61704700ED00E0FE
:10213000044800232021C2180133302B82F80013F9
:10214000F9D1704700E100E008B5EFF30583064AD6
:10215000103B02EBC30152F8330049688847BDE8E1
:10216000084004F027BB00BF3C710000024B034A4B
:102170000348022100F066B800000420000000209F
:10218000FC730000084AC2F898000B6823F01F0394
:10219000034343F01003C2F89C308B6843F0010303
:1021A000C2F8A030704700BF00ED00E02DE9F04319
:1021B000DFF8608085B00E461F4604464FF00009E8
:1021C000B14523DA6068D8B13FB1411E08421BD146
:1021D0001F2819D92368194216D12368019304F0E6
:1021E0000CFBA36803430393D8F89050C5F307256D
:1021F000D0B2013DA84207D801A9FFF7C3FF421C96
:1022000009F101090C34DBE76FF01502104605B047
:10221000BDE8F08300ED00E0044B0522C3F89420F4
:10222000BFF34F8FBFF36F8F704700BF00ED00E02B
:10223000BFF35F8F024B0022C3F89420704700BFAA
:1022400000ED00E010B5034C01232278FFF7AEFF4C
:10225000207010BDB11400202DE9F043534B544CB5
:10226000D3F890302568C3F307239D4285B000F270
:102270009A80FFF7DDFF00200C2685421AD14D4CD5
:102280004D4F25706846FFF76FFCDFF82081DFF8BF
:102290002C9106460025AE4213D1237843490020F5
:1022A000D1F89020C2F30722934276DBFFF7B4FF08
:1022B000002042E0616806FB0011FFF763FF013078
:1022C000DBE7009800EB05114FEA051CCB683B40AB
:1022D000B3F5000F48D00AD8B3F5001F30D0B3F5DE
:1022E000800F36D0B3F5801F10D00135D3E7B3F19E
:1022F000807F42D0B3F1007FF7D150F80C3088686E
:102300004A6804F07AFA40F4802009E050F80C3072
:1023100088684A6804F071FA40F0885040F4302030
:10232000CDE901230390D8F890302078C3F3072338
:10233000013B98422AD96FF0150005B0BDE8F08343
:1023400050F80C3088684A6804F057FA40EA0900EF
:10235000E6E750F80C3088684A6804F04EFA40F01E
:10236000007040F40030DBE750F80C3088684A68B1
:1023700004F043FA40F08270D2E750F80C308868DD
:102380004A6804F03AFA40F08870C9E701A9FFF7FB
:10239000F9FE237801332370A7E7C1F89830C1F81C
:1023A000A00001337CE74FF0FF30C6E700ED00E00E
:1023B00014740000B11400200000F0FF00000811A8
:1023C000014B1860704700BFD40400200E4A01235F
:1023D000C2F840354FF080424FF08051C2F8783556
:1023E000D1F83001082808D1D1F83411052904D8D2
:1023F0000648415C09B1C2F838364FF080430122EB
:10240000C3F880250020704700E00140FB7C0000FD
:1024100020B1034B800143F001031847704700BF10
:1024200040730000084B70B5C31A0D4607499B1056
:10243000044659430648402204F026FA2B4601463A
:102440002046BDE870401847FC120020B76DDBB68F
:10245000D870000073B50C4C0C4A4023041B009349
:102460000D460B460A49A41061430646094804F08C
:1024700036FA011E05DA30462B4602B0BDE8704040
:10248000184702B070BD00BFFC1200204D6900006B
:10249000B76DDBB6D870000010B5EFF311842023C0
:1024A00083F31288BFF36F8F074A136823F002018A
:1024B000DB07116002D4012004F0B7FC84F311881B
:1024C000BFF36F8F10BD00BF4C130020002270B50A
:1024D000012104461046FFF7ADFD0F4801F046FA12
:1024E0000E4B984215D101F051FA26690C4930463D
:1024F00004F029F800280BDB01253564246908491C
:1025000004F11C0004F01FF8002801DBE564002042
:1025100070BD6FF00400FBE7ED2500000000AD0B7F
:102520003474000030B4104B0C2202FB003301461F
:102530000020D3E90E529863EFF31180202484F336
:102540001288BFF36F8F1C6C04F0C00444F00204C7
:102550001C6480F31188BFF36F8F1DB12B460348B5
:1025600030BC184730BC7047FC120020D870000007
:1025700010B4EFF31182202383F31288BFF36F8F1F
:102580001848016841F002040460C80708D482F3C7
:102590001188BFF36F8F01205DF8044B01F008BA7A
:1025A0004FF08041D1F80C04D1F80C14C907EED5D6
:1025B000EFF3118083F31288BFF36F8F0A490B6C1E
:1025C00003F0C00343F002030B6480F31188BFF3F0
:1025D0006F8F82F31188BFF36F8F00205DF8044B7B
:1025E000FFF7A0BF4C130020FC12002010B10128FF
:1025F00004D07047034B1B6C5B0701D1FFF792BF00
:10260000704700BFFC1200202DE9F8433649BFF3A4
:102610005B8F0746012251E8003F41E80020002877
:10262000F9D1BFF35B8F33B9304931484B60CB6090
:102630008A6003F09BFF7B1E012B2DD8012F07D151
:102640004FF08043D3F81C3403F00303012B23D055
:1026500004F0C7FC054608BB264B1B78F3B14FF0CE
:1026600080430222C3F808230646DFF88C904FF01F
:1026700080444FF00108D4F81824D4F81834D20359
:1026800015D503F00303012B01D0012F0FD125B382
:1026900086F31188BFF36F8FBDE8F883EFF31186DF
:1026A000202383F31288BFF36F8F0125DDE73046C7
:1026B00004F094F8D4F81835002BDCD1D4F80421B8
:1026C000002AD8D0C4F80431D4F80431C4F81885ED
:1026D000C9F88081C4F80880CDE74FF0804302221A
:1026E000C3F80423D8E700BFF8120020E812002046
:1026F00018130020B514002000E100E008B50748D9
:1027000004F02DFC38B10648FFF75AFE0448FEF7E6
:10271000E7FE002008BD6FF01200FBE71471000017
:10272000252700000A2838B5074D044604D1AB68B8
:102730000D215B6828469847AB6803485B68E1B2A7
:102740009847204638BD00BF14710000024B0B6053
:1027500001231360704700BF5013002000487047EA
:102760005874000010B504F0ECFB034C206004F03A
:10277000E4FB6060002010BD501300204FF0804249
:10278000D2F81015D2F8103501F01E0123F01F0306
:102790000B4343F00103C2F81035024B00221A70BC
:1027A000704700BFB21400204FF08053D3F830318F
:1027B000082B20D14FF08042D2F81015CB071AD544
:1027C000D2F8103501F01E0123F01F030B43C2F8AD
:1027D0001035D2F808315BB1D2F8103523F01F0361
:1027E0000B4343F00103C2F810356FF08B007047C4
:1027F000024B01221A700020704700BFB214002063
:102800002DE9F0410D46164604F097FB3146074688
:10281000284604F017F928B3B5FBF7F307FB135369
:1028200003BBB6FBF7F407FB1464DCB9B74213D85B
:1028300004F083FBDFF834800746FFF7B5FF04465A
:1028400068B9284601F042FD98F800300BB1FFF757
:1028500095FFF61B3D44F0D12046BDE8F0816FF0B6
:102860008B04F9E76FF01504F6E700BFB2140020FF
:102870002DE9F8430E463046194617461C4604F02B
:10288000E1F830B344EA060515F0030521D11CB385
:10289000DFF84C906319032BA6EB050807D80F4A05
:1028A000D2F80034DB07FBD50020BDE8F883FFF742
:1028B0007BFF58B97B1B4046196801F027FD99F84A
:1028C00000300BB1FFF75AFF043DE3E76FF08B00D8
:1028D000EBE76FF01500E8E72046E6E700E001408F
:1028E000B2140020F0B54068057B01F01F0444EAF3
:1028F0004514056987B0002D64D0B2F5001F00F1C2
:10290000100506D12146284604F00FFB002007B031
:10291000F0BD01AE0027B2F5800F0197776039D185
:10292000B3F1007F14BF052304238DF80430002386
:10293000CDE904630393836823FA01F111F00101E7
:102940001AD1B2F1A07F17D104F01F03620903F579
:10295000E0732AD0012A3BD11F4A52F82330DB070B
:102960000AD40DF1030632462146284601F008FB41
:102970001A4B98421CD0029603AA2146284601F021
:10298000C1F9174B984220D101222146284601F077
:102990005BFBBBE7B3F1C06F05D0B3F1007F14BFA1
:1029A00001230223C1E70323BFE74FF0A042D4E78E
:1029B0003146284601F042FB094B9842DBD06FF0CC
:1029C0000B00A4E76FF08500A1E76FF015009EE70C
:1029D00051F82330FFDE00BF000300500400AD0BB0
:1029E0000000AD0B38B545682B69B3B110352846EA
:1029F00001F014FB044680B90146284601F0DAFADA
:102A0000084B98420BD108492246284601F0B2FAF9
:102A1000224605210620FFF70DFB002038BD6FF090
:102A20000400FBE70000AD0B2D2A0000420970B541
:102A3000034602D0012A17D070BD0D4E326951688D
:102A40000029F9D003F01F0301250C689D400029DF
:102A5000F2D08A682A4002D04B68304698472CB1A1
:102A6000236821461C46F2E7024EE7E72346F8E7D3
:102A700000710000EC7000002DE9F043466840F260
:102A80000635D006337B87B002EA050554BFC2F392
:102A90004010032001F01F07B5F5837F144647EA75
:102AA00043178DF8030045D00FD8062D18D007D84E
:102AB000B5B1022D40D06FF0150007B0BDE8F0832E
:102AC000B5F5807FF7D101250AE040F20222954258
:102AD00034D0B5F5407F33D0B5F5007FEBD102257A
:102AE0000123220303FA01F12CD57368C3F80815FA
:102AF000326982BB07F01F037F0929D0012F77D1EC
:102B00003E4A02EB830284F48033D2F80017C3F309
:102B10000043C4F3404444EA430421F4E16144EA3D
:102B2000800421F0070144EA05230B43C2F8003773
:102B30000020C2E70725D3E70425D1E70525CFE725
:102B40000325CDE7630344BF7368C3F80C15CFE7D3
:102B50004FF0A042D5E710360DF10202394630465B
:102B600001F00EFA14F4403F80460CD1394630464D
:102B700004F0D9F9224B9845DAD19DF8021030467D
:102B800001F056FAD4E701AB4FF0000903AA394629
:102B90003046CDE90439CDE90199CDF80C9001F02A
:102BA000B1F8174B984286D114F4003315D09DF834
:102BB00003308DF80E3084F48034C4F300444B4667
:102BC00003AA394630468DF80C508DF80D4001F0BF
:102BD00053F90B4B9842CDD06DE7CDE9043303AAEE
:102BE0000DF1030339463046039301F08BF8F0E70B
:102BF00003F5E07352F82330FFDE00BF00030050FE
:102C00000000AD0B036803F01F025B09026004D0F3
:102C1000012B034818BF002070474FF0A0407047B9
:102C2000000300502DE9F04FDFF89491DFF894A1F4
:102C300085B01546834600EB810140F2FF185945E7
:102C400003D1002005B0BDE8F08FDBF800305E0452
:102C5000C3F3C322C3F3080400F1AC801B0E19F8C0
:102C60000270444508BF4FF0FF34222B00F2A580CC
:102C7000DFE803F012191F22252B22A3A3A3A33BF5
:102C800068A3A3A3A3A3A3A3A3A36B818487A3A3E4
:102C9000A38A9194979A9D00C5F80C45601C5ED15B
:102CA0000BF1040BCBE7C5F81445621CF8D00026E5
:102CB0005FE0C5F80845F1E7C5F81045F5E7631C86
:102CC000C5F80845ECD0002604E0661CC5F80C45A4
:102CD000E6D0012603A80394FFF794FF039B01228B
:102CE00002FA03F3C0F80C3508E0C5F80845002FD8
:102CF000DBD1631CD4D0002632460627DBF8003037
:102D0000019303F40040002818BF002203A800929A
:102D100018BF01260394FFF775FF039C019B009ADF
:102D200000EB8400C3F3412CD0F800473B0243EA98
:102D30008C03134304EA0A04234343EA4603C0F81E
:102D40000037ADE7C5F80C45D1E7C5F86045601C14
:102D5000DBF80030A4D0C3F30043002BB9D003A8A4
:102D60000394FFF74FFF039B012606FA03F3C0F815
:102D700008353246C2E7C5F86445E8E7C5F8684556
:102D8000E5E7C5F86C45E2E7C5F82445621C87D045
:102D900000220126B2E7C5F828457FE7C5F830458F
:102DA000F4E7C5F83445F1E7C5F83845EEE7C5F86E
:102DB0003C4573E76FF0150044E76FF0850041E78D
:102DC000527D0000F0F8FCFF2DE9F0410446476811
:102DD0000D4604F006F94FF0200868B9244B1B7823
:102DE00053B16426606803F0D4FED0B9012004F02A
:102DF0000EF8013EF6D1F4E7EFF31186314688F381
:102E00001288BFF36F8F606803F0C3FEA8B986F322
:102E10001188BFF36F8FEFE786F31188BFF36F8FD1
:102E2000DFE7EFF31186314688F31288BFF36F8F27
:102E3000606803F0AEFE0028EED0BB691D706368C9
:102E4000BA691B680020C3F844250122C3F848254D
:102E5000C3F82001D3F82041C3F85801D3F8580132
:102E60009A6081F31188BFF36F8FBDE8F08100BFD6
:102E7000B5140020F7B50546002201210220FFF716
:102E8000D9F80220FFF7A6F86A6811681369C1F83B
:102E90002435137D507D927D03431343C1F86C3577
:102EA0006E68D6E9004313F0010348D02F6907F19B
:102EB000080003F0B8FF304B98425AD1387A04F139
:102EC0000C0204F5907103F0A4FF387A012707FA89
:102ED00000F000F0E3FC0823C4F80035B369C4F83F
:102EE00044350023C4F84835A760D4F85831002B86
:102EF000FBD00021C4F800156B68DC6801AA2046ED
:102F000003F01AFE002805DB019B22681979186876
:102F1000FFF788FE6A6813680821C3F80015117A64
:102F200051B9D269C3F834250122C3F83825C3F852
:102F30001011D3F810111A60002003B0F0BD082260
:102F4000C4F80025B269C4F84425C4F84835012303
:102F5000A360D4F82031002BFBD00023C4F820312B
:102F6000D4F820310123E3604FF48073C4F80433B4
:102F7000BBE76FF00400E0E70000AD0B70B5012384
:102F800083400E4ABFF35B8FDC4352E8001F01EA27
:102F9000040542E80056002EF7D1BFF35B8F4FF4D3
:102FA000803282400648C0F80823BFF35F8FBFF32A
:102FB0006F8F0B4214BF0120002070BD80130020D2
:102FC0000010014070B40E49D1E90034D01AC31882
:102FD00044F1000422F07F46C1E90034A6F5001355
:102FE000B3F5400F09D2074B1B681A0A1B069C1940
:102FF000054B42F10005C3E9004570BC01F0B0BAD1
:10300000E805002084130020F005002011B3BFF371
:103010005B8F0123104A834052E800CF4CEA030C37
:1030200042E800C10029F7D1BFF35B8F0B4A4FF490
:1030300080338340C2F80433094BBFF35B8F1B68B6
:10304000BFF35B8FC340DB0742BF064B4FF4003238
:10305000C3F80021704700BF80130020001001401A
:103060007C13002000E100E00D4B1868010A000607
:10307000BFF35F8F0B4BD3F80435181841F10001F3
:10308000B3F5801F0AD2084BD3E90023904271EBBD
:10309000030303D210F1807041F10001704700BFBB
:1030A0008413002000100140F00500202DE9F04FAE
:1030B00085B016461F469DF840A00446FFF75EFF08
:1030C0000190FFF7D1FFB04271EB070354D23E4BA2
:1030D000301A67EB0101984271F100014FD23B4B6E
:1030E00003EB0413D3E902239F4208BF96425ED04C
:1030F00037494FF4803804F1500508FA04F8AD0060
:10310000C1F848832046ADB203F074FD26F07F4B32
:1031100005F1804504F5A87305F58835DC464FF0C8
:1031200003090293029A2CF07F4341F82230C1F840
:103130004483D1F80435274A6FF00200C01A604476
:1031400020F07F40904232D9286868B1D1F8043528
:103150000393A3EB0B0020F07F40B0F5000F26D9BE
:10316000204603F047FD039BBAF1000F07D109EB9E
:10317000030C09F10109D5E7BAF1000F09D06FF08E
:10318000150520460199FFF741FF284605B0BDE827
:10319000F08F0123104ABFF35B8FA34052E8000F6A
:1031A000184342E800010029F8D1BFF35B8F0749BB
:1031B0000E98230101EB0412C8500F9B5360C2E923
:1031C00002670025DDE700BF01008000D805002070
:1031D00000100140FDFF7F007C1300207FB51C4CD8
:1031E0001C4BC4F80833C4F848331B4B00254FF080
:1031F000FF304FF0FF31C4F80855C3E902014FF426
:103200008033C4F80433154B02264FF400320121F9
:10321000C4F804631120C3F880212A46FEF70AFF90
:103220001120FEF7D7FE0E4A0123A360236013602E
:103230000C4B0D4A0093CDE9015500232846FFF7BA
:1032400035FF3046FFF7E0F9284604B070BD00BFF7
:103250000010014003000F00D805002000E100E04D
:1032600080130020C52F0000FFFF7F002DE9F743EA
:103270002F4CD4F8043399070BD5D4F8043143B15B
:103280002C4A0023C4F80431D4F804311368013304
:103290001360D4F80433DA0329D5BFF35B8F264BD0
:1032A00053E8002F22F0010143E800100028F7D175
:1032B000BFF35B8FD30702D4D4F84031BBB10025F4
:1032C000C4F84051D4F84031FFF7CEFEEFF311823D
:1032D000202383F31288BFF36F8F184BD3E9026763
:1032E000B042B94106D282F31188BFF36F8F03B0A9
:1032F000BDE8F0834FF0FF384FF0FF39C3E9028992
:10330000D3E900101D604FF48033C4F84833C4F88B
:103310004051D4F8403182F31188BFF36F8F0029F8
:10332000E5D0009032463B4628468847DFE700BF9D
:1033300000100140841300207C130020D8050020D9
:1033400030B5431C124C85B005D08442A8BF04465A
:10335000012CB8BF0124FFF787FE0E4B0C4DD3E9BB
:103360000013401AB0F5000F10D22218AA4228BF4D
:103370002A4652184FF0000007490091CDE901009C
:1033800043F10003FFF792FE05B030BD2A46F0E797
:10339000FFFF7F00E8050020C52F000008B5FFF7FC
:1033A00063FE024B1B68C01A08BD00BFE805002081
:1033B00010B5084C012363601120FEF719FE064B7F
:1033C000C4F80833C4F84833044B4FF40032C3F850
:1033D000802110BD0010014003000F0000E100E05B
:1033E00030B50C490C4D0B680246002405EB031068
:1033F000D0F80808C0B218B904B10B60002007E08B
:103400000133072B4FF00104F0D90B606FF01B0064
:10341000136030BD8813002000E0014030B58168A2
:1034200085B0103921F00704054603F06EF910222B
:103430000146684603F013FA07491022684603F074
:1034400003FA10236A462146284603F028F900387B
:1034500018BF012005B030BD8676000030B50D469E
:10346000816887B0102302AA1039044603F002F9DC
:10347000002802DA012007B030BD102202A9204640
:1034800003F025FC00283AD11E49102202A803F0BF
:10349000CBF900280CBF012302232B70204603F038
:1034A00002FC012301460DF10702204603F0E2F879
:1034B0000028DFDB9DF8073003F00F021B096A705C
:1034C0002B7101220DF10701204603F000FC10B919
:1034D0006B78042B03D901236B7000232B71A26836
:1034E000183A22F00702083AA91C204603F002FC11
:1034F0000028BFD1E91C204603F055FCBBE703239D
:10350000CBE700BF86760000F0B5354F460085B0AA
:103510000546694657F8260003F04BFC044610B1F7
:10352000FF2005B0F0BD013602A957F8260003F0D0
:1035300040FC012837D12B482A46492103F08CF85A
:10354000294B02938DF80C409DF800609DF808709F
:10355000264C00222078314603F0ABFB50B3607854
:10356000394603F0A6FB28B3A378042B03D09DF8BB
:10357000031099421ED1E378042B03D09DF80B1061
:10358000994217D12379042B10D16279022A1DD1D7
:10359000174B18482A46492103F05EF86079831ECC
:1035A000022BBED9BCE70028CED0B9E79DF80210A7
:1035B0009942EAD00132032A04F10604CAD10E4826
:1035C0002A46492103F048F80120AAE7032A05D03A
:1035D0000A4B0B49042A08BF0B46DAE7094BD8E728
:1035E000D47400008B7D000003010303207E0000E3
:1035F0006D7D0000D67D0000FA7D0000727D000028
:10360000847D0000687D00004FF08053D3F83021A6
:10361000082A06D1D3F83431052B02D8024AD05CEF
:1036200070470020704700BF387E0000024AD2F881
:103630000034002BFBD0704700E0014010B54FF084
:103640008053D3F83021082A4ED14FF08042002118
:10365000C2F80C11C2F81011C2F8381502F5404238
:10366000D3F80414C2F82015D3F80814C2F82415AE
:10367000D3F80C14C2F82815D3F81014C2F82C157E
:10368000D3F81414C2F83015D3F81814C2F834154E
:10369000D3F81C14C2F84015D3F82014C2F844150E
:1036A000D3F82414C2F84815D3F82814C2F84C15DE
:1036B000D3F82C14C2F85015D3F83014C2F85415AE
:1036C000D3F83414C2F86015D3F83814C2F864156E
:1036D000D3F83C14C2F86815D3F84014C2F86C153E
:1036E000D3F84434C2F87035FFF78EFF18B1414B60
:1036F000414AC3F88C26FFF787FF18B13F4BFB22E6
:10370000C3F81825FFF780FF70B14FF080414FF0EC
:103710008053D1F8E42ED3F8583222F00F0203F090
:103720000F031343C1F8E43EFFF76EFF20B1344BA3
:103730004FF40072C3F840264FF08053D3F8303175
:10374000082B09D14FF08043D3F80024D20744BF9F
:103750006FF00102C3F800242A4AD2F8883043F4FB
:103760007003C2F88830BFF34F8FBFF36F8F4FF0F5
:103770008053D3F83021082A0ED1D3F83431052BE9
:1037800002D8214AD35C3BB14FF01023D3F8082272
:103790004FF08043C3F858254FF01023D3F8002290
:1037A000002A03DBD3F80432002B22DA1749012365
:1037B0004FF01020C1F804351224FFF737FFC0F88E
:1037C0000042FFF733FFC0F80442FFF72FFF00234A
:1037D000C1F80435FFF72AFFBFF34F8F09490C4B9F
:1037E000CA6802F4E0621343CB60BFF34F8F00BF9F
:1037F000FDE710BD005000404881030000F000408C
:103800000090024000ED00E0327E000000E0014048
:103810000400FA0530B50468CCB1BFF35B8FB4FA8D
:1038200084F3C3F11F03DBB201229A4024EA0202AF
:1038300050E8005FA54204D140E8002CBCF1000F25
:10384000F6D1BFF35B8FE6D102480B7030BD024862
:10385000FCE700BF0000AD0B0200AD0B10B5036824
:10386000CB40DB0714D401238B400268BFF35B8F8E
:1038700043EA020150E8004F944204D140E8001CA2
:10388000BCF1000FF6D1BFF35B8FEED1014810BD44
:103890000148FCE70000AD0B0400AD0B014BC3F881
:1038A0000405704700F00140F7B50546F8B101285E
:1038B0001BD104224FF4807301464FF08040034433
:1038C0000244C0F808130026012111601E608D42D9
:1038D0001B688DF8071008BF0DF1070642F210743F
:1038E0004FF0804745B1012D28D003B0F0BD0C2228
:1038F0004FF482730221E0E7D7F8183403F48033E1
:103900003EB9002BF1D0012003F081FA013CF3D144
:10391000EBE7D7F8182402F003023260002BE4D062
:103920009DF80700012803D103F071FA013CD9D1B9
:10393000012DDAD10C4B00225A71D6E7D7F80C349E
:1039400003F480333EB9002BF4D0012003F05FFA7A
:10395000013CF3D1EEE7D7F80C2402F001023270FB
:10396000002BDDD1E6E700BF8C130020044B1A7951
:1039700022B9012218609A800248704702487047B5
:103980008C1300200000AD0B0C00AD0B08B5074BED
:103990001B682BB10020FEF73FFB08B9FEF71AFBAE
:1039A0004FF080430022C3F8182508BD8C13002077
:1039B00010B510B1012843D010BD4FF08043D3F8AB
:1039C0001814D3F81824C80321D502F00303012BDF
:1039D00004D013B10020FFF767FF00234FF08042AF
:1039E0000220C2F8183508224FF4827303F1804395
:1039F0000021196002F180421C6801241460154AFC
:103A000012680AB34FF08043C3F80403D4E7D3F835
:103A10001424D107E1D5D3F81C249207DAD40D4A37
:103A200012681AB10222C3F80423C5E7D3F80421AF
:103A3000002AFBD00022C3F80421D3F80431BBE7ED
:103A400000224FF48073D1E71A68002AFCD0196075
:103A50001B68B1E78C130020F8B54FF080431C4E73
:103A6000D3F804430125002704B9F8BDB4FA84F063
:103A7000C0F11F00830003F580739BB203F1804304
:103A800005FA00F2196892B224EA02040029EBD088
:103A90001F601B684FF08043012AC3F8082305D03C
:103AA000022A08D03368C0B29847DDE77379002B4B
:103AB000DAD17271F6E7D3F81814D3F8181489071D
:103AC000F0D1C3F81855C3F804239D60CCE700BFBC
:103AD0008C130020036803F01F025B09026004D00E
:103AE000012B034818BF002070474FF0A0407047DB
:103AF00000030050034A430900F01F00D35C184440
:103B0000C0B270473E7E000070B50546FFF7F2FF79
:103B10000C4C08300E4634F81030DA0508D5C3F3E3
:103B2000432304EBC302284654F8333052689847C5
:103B3000A3682BB1E26831462846BDE870401847BB
:103B400070BD00BFD804002008B5FFF7D3FF034BBA
:103B5000083033F81000400B08BD00BFD804002027
:103B600008B5FFF7C7FF034B083033F81000C0F368
:103B7000400008BDD804002008B5FFF7BBFF034B89
:103B8000083033F81000C0F3401008BDD8040020FE
:103B9000034611F0010010B5CCB20DD1A207C4F359
:103BA000400012D5094AD2F820055860C2F8200515
:103BB000003818BF012008E04FF0A041D1F82025BF
:103BC0001A60C1F82025002AE8D010BD000300507B
:103BD00010B5FFF78FFF124A083032F81030D905C0
:103BE0001CD5C3F3432123F4F85322F8103002F11B
:103BF0000E04002034F8023F13F4807F03D0C3F397
:103C0000432399420AD001303028F3D1002342F8EF
:103C100031300448BDE81040FFF720BE10BD00BFA2
:103C2000D804002050050020F0B5054600200446C9
:103C3000012607468C420BD1114BD3F87C2132B1BF
:103C40000022C3F87C21D3F87C3140F00040F0BD65
:103C5000E3B29B0003F580729B0806FA03F31D4252
:103C60000BD002F1804202F5C042D2F800C0BCF194
:103C7000000F02D01760126818430134DAE700BF62
:103C800000600040F7B506460846FFF733FF194FBE
:103C900000F108050C4637F81530DB0727D530460C
:103CA00003F01DF92046FFF767FF40B12046FFF7FC
:103CB0004BFF316800F5A270002341F82030204608
:103CC000FFF786FF002301A827F815300194FFF7BE
:103CD00001FF019B00EB8300074BD0F80027134046
:103CE00043F00203C0F80037044803B0F0BD0448B5
:103CF000FBE700BFD8040020F0F8FCFF0000AD0B8C
:103D00000400AD0B2DE9FF41164680460846FFF73B
:103D1000F1FE0D463168044609B32846FFF720FF3F
:103D200018B12846FFF728FF10BB0023CDE9003368
:103D30008DF80E308DF80F300DF10F020B4628462E
:103D40000DF10E0103F073F8474A04F1080132F84F
:103D5000113023F0020343F0010322F8113073689D
:103D600063B328461F785968FFF7FAFE10B1D1B146
:103D70003E4826E03C4A04F1080032F8103023F0B7
:103D80002003DB04DB0C22F8103061B1032FEFD8E5
:103D90007168496891F800C0D8F80010A7B90CF50F
:103DA000A27C41F82C70304A04F1080132F811303D
:103DB00023F01C0343EA870322F81130B3684BBB9E
:103DC0002B4804B0BDE8F08101EB8C0143EA4C3391
:103DD000D1F810E52EF0030EC1F810E5D8F8001068
:103DE00001EB8C0E43F02003DEF8101522F81030A2
:103DF00021F44F3121F44071CEF810152902DEF87C
:103E0000108501F47C5141EA074141EA0801CEF8EE
:103E10001015C8E7D3E900672846FFF7D9FE002E42
:103E2000CED0114DD5E90023964203D19F4201D156
:103E3000002209E00F480DF10F01FFF7EBFC0C4BDE
:103E40009842BED19DF80F2045F8326005EBC203C1
:103E500008345F6035F8143043EA422343F480733A
:103E600025F81430ACE700BFD80400200400AD0BE7
:103E70000000AD0B500500202DE9F0430C4685B045
:103E80008046204611461E46FFF734FE054629B3FC
:103E90002046FFF765FE18B92046FFF76DFE18BBF8
:103EA000314F05F1080937F8193013F01C0F02D013
:103EB0004B78012B18D001238DF80F300023CDE96A
:103EC00000134A1C8B1C20460DF10F0102F0AFFFBE
:103ED00037F8193043F0030327F81930002E41D08A
:103EE0002046FFF73DFE18B9204805B0BDE8F08335
:103EF00096F800C0D8F800301B4F0CF5A2720021D4
:103F000043F8221005F1080237F8121021F02001C1
:103F1000C904C90C27F8121075781DB3D8F8000031
:103F2000B67800EB8C002D04D0F8103523F49913EB
:103F300023F4F853C0F81035230203F47C5305F43E
:103F400040353605D0F810E52B4306F4801641EADB
:103F50004C31334341F0200143EA0E0327F812109D
:103F6000C0F810350248C0E7D80400200400AD0BAB
:103F70000000AD0B014BC3E902127047D8040020CA
:103F800010B508461446FFF7F7FD50B10846FFF795
:103F9000B1FD054B083033F8103004485B0B23703B
:103FA00010BD0348FCE700BFD80400200000AD0BA3
:103FB0000400AD0B70B5164D95F8804006462CBB3D
:103FC0002146602205F1100002F049FC30682E6F96
:103FD00021468E420ED10023C0F87C31D0F87C31CE
:103FE00040F30730FDF7F6FF01230A4885F88030DB
:103FF000AB6770BDCBB29B0003F580727C2B08BF12
:10400000845001F1010108BF8358E2E70248F0E75C
:10401000D80400200000AD0B0C00AD0B034B93F84F
:104020008000003818BF0120704700BFD80400206E
:104030000148FFF713BC00BF4C0500200148FFF703
:10404000E9BB00BF4C05002073B503681646D3F8E2
:104050000423002AA8BF4FF000420546A8BFC3F8BA
:10406000042308460C46FFF787FD00B30846FFF718
:1040700077FD0146D8B92046FFF766FD04B2A400DB
:1040800004F58072034628688150296882582144CB
:10409000D1F8102542F00102C1F810252EB129688F
:1040A000012202FA03F3C1F8043302B070BD2046C6
:1040B000FFF720FD0F4B083033F81030C3F38203B5
:1040C000042B12D0052B12D001A80194FFF702FD9A
:1040D000019AD0F81035D34003F00103991C204613
:1040E00002B0BDE8704002F0EBBE0321F7E7022109
:1040F000F5E700BFD80400202DE9F04F694BDFF849
:10410000B081D3F80403D8F87010C0B289B040F081
:104110000040FFF789FD051E2FDAC24600235AF83A
:104120007C1F06A8CDE90633FFF732FD5E4B0193F5
:104130000DF118094FF0000B019A12F8013B0192A2
:10414000DA0803F007031AF8022022FA03F3DA0769
:104150001CD409F10409BBF1000F14D0D8F8701079
:104160004FF00040FFF760FDD8F87C1006A8FFF77D
:104170000FFD0028DAD125F000450124002D79D16A
:1041800009B0BDE8F08F4FF0010BD5E7474B5B441A
:104190000293D9F800100029DBD0029B91FAA1F11B
:1041A0001C78B1FA81F141EA44142046FFF7A2FCE1
:1041B0000830059438F81070C808BB0819F80020BA
:1041C000039301F00701012303FA01F122EA01023E
:1041D00009F8002005A8FFF77DFC059A039B02F56E
:1041E000E072C7F3820650F822205B073746C2F31D
:1041F000014224D520463946D6B2FFF785FC05A8F2
:104200000594FFF767FC059B03F5E07350F8233036
:10421000C3F301439E4207D10021204602F050FE25
:104220003146204602F04CFE05A80594FFF752FCEB
:10423000059B012202FA03F3C0F82035A9E7022A00
:104240000CD10321204602F03BFE06F00503012BB2
:10425000EAD139462046FFF757FCE5E70221204620
:10426000039202F02DFE032EF3D0039A032ADBD132
:10427000022EEDE795FAA5F3B3FA83F304FA03F2FD
:104280009B0003F1804303F5C04325EA0205D3F800
:104290001005D3F81015C0F30520C1F30141FFF755
:1042A00033FC6BE7006000404E7E00004E7E000055
:1042B000D8040020044AD2F80034DB07FBD50160A3
:1042C000BFF35F8F704700BF00E001404FF08053A5
:1042D0001A69B0FBF2F302FB130373B9084B022215
:1042E000C3F80425C3F80805D3F80024D207FBD58A
:1042F00000220448C3F8042570470348704700BFF4
:1043000000E001400000AD0B0A00AD0B10B5054CFC
:104310000123C4F80435FFF7CDFF0023C4F80435AA
:1043200010BD00BF00E0014001460148FFF772BA2E
:104330005C05002010B5144CA8220021204602F094
:104340008EFA03232361114A6361114BA261E36179
:104350004FF4806323620023A3626362E3622266F8
:104360000C4A62661022A2662367E3666367BFF3A6
:104370005F8F094A12F8011DE1540133102BF9D166
:10438000BFF35F8F10BD00BF10040020507E0000FF
:104390001000002000000020697E000010B4BFF370
:1043A0005F8F0C4A0C490023C85C12F8014D84420F
:1043B0000AD10133102BF7D10023BFF35F8F2BB14C
:1043C0005DF8044BFFF7B6BF0123F6E75DF8044B39
:1043D000704700BF697E00001004002038B5094B0B
:1043E00053F82040013053F82050A54200D838BD82
:1043F000636823B1204602F0D7FD0834F5E723684F
:104400009847FAE7DC74000008B50A4B0122032044
:104410001A70FFF7E3FFFDF7EDFB02F0E1FD04206A
:10442000FFF7DCFFFBF7D6FF034A137B23F0010302
:10443000137308BDB5140020F805002008B5034823
:10444000034A0021121A02F0C7FD08BDD80500205A
:10445000B814002008B50020FFF7C0FF184B83F305
:104460000888184C636943F4007363610025E023F6
:1044700084F82230E57725766576A57684F8205095
:10448000636A43F4E023636284F82350FDF70CFD74
:10449000FDF748FE4FF0FF33A362E362FDF7DCFE59
:1044A000FDF764FE02F05AFD0120FFF797FF02209E
:1044B000FFF794FF04482B462A462946FDF716FECF
:1044C000001D002000ED00E0094400000748084AF4
:1044D000084908B5121A02F081FD0748074A084941
:1044E000BDE80840121A02F079BD00BFC0040020E8
:1044F000D2050020747E0000B8040020C004002013
:104500006C7E0000024B1868984208BF002070477C
:1045100060050020034B1B680BB9FEF73FBF00206E
:10452000704700BF9413002030B570B10B4B5B682F
:1045300098420AD0036843B1D3E90421D0E9044585
:10454000121941EB0501C3E90421D0E900321360DF
:104550005A600023C0E9003330BD00BF6005002071
:104560002DE9F047EFF31185202383F31288BFF381
:104570006F8F244F244E3860FFF7C4FF4FF00008C0
:104580004FF000093B68D6E9001E4FEAE37C50B1CA
:10459000D0E90442A3427CEB020A16DAE41A62EB89
:1045A0000C02C0E904425B184EEB0C020024C6E981
:1045B00000323C6002F01BFD2146FEF7C1FE85F390
:1045C0001188BFF36F8FBDE8F08761184EEBE4737D
:1045D000C0E90489C6E90013FFF7A6FF85F3118837
:1045E000BFF36F8F83689847EFF31185202383F320
:1045F0001288BFF36F8F3B681B1B3B60FFF782FF86
:10460000C0E700BF941300207806002010B50A4CC4
:1046100023681BB101232360002010BD00F048F87F
:104620000028F7D00138062803D8044B53F820009F
:1046300010BD034810BD00BF98130020F4740000A3
:10464000FE8FFFFFBFF34F8F0549064BCA6802F488
:10465000E0621343CB60BFF34F8F00BFFDE700BFA5
:1046600000ED00E00400FA0510B40A4B0A490B4CB7
:104670004FF0FE32C3F800244968C3F80424C3F89D
:104680000824C3F80C240023C4F800355DF8044B5B
:10469000084700BF00B002506805002000A002508B
:1046A000D0E90012014BC3E90012704768050020F1
:1046B00038B500F02FF820B1032400F063F820464D
:1046C00038BD00F031F898B900F0ACF898B90F4D4A
:1046D000D5F828391B0EF02B08D1D5F8242A0C4B1D
:1046E0009A420AD0072400F017F8E6E70624FAE712
:1046F0000424204638BD0024F5E7012000F092F89C
:1047000004460028F7D1C5F80C0AD8E700B00250DB
:104710000000E0200020704700207047014BC3F8E4
:10472000040A704700B0025010B5114800F048F874
:1047300000B110BD0F4800F043F80028F9D10E4C2D
:10474000204600F03DF80028F3D10C4B0C481C60CB
:1047500000F036F801460028EBD100F02DF80446B1
:1047600008B1204610BD00F03FF82046FAE700BF30
:10477000800500207C0500207805002070050020C1
:104780007405002008B5084800F024F8074800F038
:1047900021F8074800F01EF8064800F01BF8BDE8B5
:1047A000084000F00BB800BF800500207C05002009
:1047B000780500207405002000207047704700BF76
:1047C00008B5034B02681B6810689847002008BDB5
:1047D0009805002008B5034B02685B68106898478D
:1047E000002008BD9805002070B5094C094D2069CE
:1047F000AB68984718B1084B08485B689847084A67
:10480000EB68206900211160BDE87040184700BFC7
:104810008405002098050020680500201075000020
:104820009C130020F8B51A4D1A4E0446B268286948
:104830009047E8B9184F3B684CB1A3B1012B19D090
:10484000013B3B602869F36898470020F8BD43B9F5
:10485000124A0121C2F800151149D1F81029002A85
:10486000FBD101333B60F368286998470020F8BD0D
:104870000C48F8BD0A4AD2F81039002BFBD1074A80
:104880006FF07E40C2F80035FFF748FF3B68D7E77E
:1048900084050020980500209C13002000A00250F1
:1048A00000B00250E98FFFFF10B5044650B16368B5
:1048B00013F0685F05D0064A934202D000232360BC
:1048C000626010BD034B04485B689847EFE700BF88
:1048D0002C5F5CA96805002030750000C8B14368F2
:1048E0000D4A934213D013F0685F0ED0012350E8B5
:1048F000002F194640E8001C9CF0000FF7D1012A58
:10490000F5D0BFF35F8F002070470448704704481C
:1049100070476FF4E04070472C5F5CA9E98FFFFFA0
:10492000EA8FFFFF80B14368094A93420AD013F02F
:10493000685F05D0BFF35F8F0023036018467047A0
:1049400004487047044870476FF4E040704700BF68
:104950002C5F5CA9E98FFFFFEA8FFFFF10B50446CB
:1049600020B1044B63600022226010BD0248FFF7B3
:104970007BFEF6E73A00003A5875000030B1026855
:10498000034B04489A4208BF002070470248704712
:10499000DD55AABB8208F0007108F00038B50D465D
:1049A0000446B0B1A0220021043002F052FB95B1C0
:1049B0000822294604F1640002F051FB082205F1A7
:1049C000200104F1840002F04AFB044B2360002024
:1049D00038BD0348FCE70348FAE700BFDD55AABB32
:1049E0007108F0008308F0002DE9F74305460E46F4
:1049F00099461146FFF7C2FF0446002840F0848024
:104A0000002E00F08580002900F08480B9F1200F8D
:104A100040F0828005F14404082205F10408204694
:104A200002F01DFB05F1240708223146404602F042
:104A300016FB06F120010822384602F010FB02A9FD
:104A40004FF4807041F8049D02F0FDFA002865D112
:104A5000334A4FF480731360012193600823314A75
:104A600000F02EFB0121084605232F4A00F028FB09
:104A70000823424601211C2000F022FB08233A466D
:104A80000121032000F01CFB224608230121022003
:104A900000F016FB0823254A01211A2000F010FB24
:104AA0000523234A01211B2000F00AFB0823214A89
:104AB0000121142000F004FB08231F4A01211520C6
:104AC00000F0FEFA082305F164020121162000F02F
:104AD000F7FA082305F184020121172000F0F0FA0B
:104AE0000823164A01210B2000F0EAFA00F044FBEB
:104AF0000446019800F0D2FA114B002C18BF1C4656
:104B0000A421284602F0A7FA204603B0BDE8F083AE
:104B10000C4CF9E70C4CF7E70C4CF5E7084CEFE7C9
:104B200090B00250BC750000347600007C75000027
:104B300020760000E0750000007600009C75000003
:104B40008408F0007608F0008008F0008108F0008A
:104B50000C4BC2691A60826943F8042C426943F81D
:104B6000082C026943F80C2CC26843F8102C8268A8
:104B700043F8142C426843F8182C026843F81C2CA4
:104B8000704700BF5CB602500C4B1B68C3610C4BF6
:104B90001B6883610B4B1B6843610B4B1B680361F4
:104BA0000A4B1B68C3600A4B1B688360094B1B6878
:104BB0004360094B1B680360704700BF5CB602503E
:104BC00058B6025054B6025050B602504CB602507D
:104BD00048B6025044B6025040B6025030B10268A6
:104BE000034B04489A4208BF0020704702487047B0
:104BF000DD55AABB0202F0000002F00038B5044601
:104C000068B1051D7021284602F025FA28462022A9
:104C1000044902F01CFA044B2360002038BD03480D
:104C2000FCE700BF48760000DD55AABB0002F0009B
:104C30002DE9F043284B04460E4615460FCB85B0B0
:104C40006F4687E80F002DB94FF00009484605B0C0
:104C5000BDE8F0832046FFF7C1FF81460028F5D16B
:104C6000231D0193636AA3BB236F8BB1C3F140087B
:104C7000A84528BFA84604F13000314618444246F2
:104C800002F0E5F9236F434446442367A5EB08058A
:104C9000226F402A06D104F13001384600F0AEFB05
:104CA0000023236705F03F0835F03F0505D0314666
:104CB0002A46384600F0A2FB2E44B8F1000FC3D0BC
:104CC0004246314604F1300002F0C1F9C4F8708068
:104CD000BCE7DFF80890B9E7307300000C02F00081
:104CE0002DE9FF41144B04460E460FCB6F4687E873
:104CF0000F002046FFF772FF8046B0B9CEB1636A5D
:104D0000251D01953BB901236362226F04F1300137
:104D1000384600F073FB2B46043E243453F8042B32
:104D200012BAA34246F8042FF8D1404604B0BDE8B9
:104D3000F081DFF80880F8E7307300000502F0002A
:104D4000084B1B681B0EF02B08D1074B1A68074B4A
:104D50009A4205D1064B0020186070470520704725
:104D60000620704728B9025024BA02500000E02003
:104D70000CBA0250002230B549001346023840F602
:104D8000FC7502F1A05404F52C44A400904202F1F9
:104D90000102CABF236025605B181E2AF1D1044AB4
:104DA00013600B445360034B034A1A6030BD00BFCD
:104DB00078B0025084B0025020F80F0030B51E4B7E
:104DC00085B01A46196800910099CC07FAD500F110
:104DD000A05000F52C408000016813680193019BEE
:104DE000D807FAD5154B164C1868164D1F302023DE
:104DF00090FBF3F00138002810DA00230130400165
:104E000053B1A0F120014FF00042134204D1013808
:104E100088424FEA5202F8D105B030BD13680393BF
:104E2000039BDB07FAD5431823602B680293029B90
:104E3000002BE3D10138DEE7B4B00250ACB0025031
:104E4000E4B00250DCB00250F0B51D6885B001F04E
:104E50001F040DB91F2C25D1154D2E462F68019723
:104E6000019FFF07FAD500F1A05000F52C4080000B
:104E7000006835680395039DED07FAD50D4D00EBED
:104E8000611028600C48006802901F2C18BFC943AD
:104E900002980FBF106001F01F0100FA01F11160CC
:104EA0000021196010684300C00F136005B0F0BD09
:104EB000B4B00250E4B00250DCB002500C4B1860A9
:104EC0003F3020F03F008901403058609960D96040
:104ED0001961596199611C330648196082B00268F2
:104EE0000192019AD207FAD5196002B0704700BF4B
:104EF00090B00250B4B0025038B5A0F12003B3F521
:104F0000426F05462CD88F2826D800F1470300F1C0
:104F10006604DB064FEA541400D0013464013F34C8
:104F2000A409013411B1A1421AD30C46E3004FF495
:104F30008050B0FBF3F0202828BF202002B1106081
:104F4000084B01221A602146FFF714FF284621462C
:104F5000FFF7B4FF002038BD00F11F046409DDE74E
:104F60000148F8E71CB802502221F000F0B5454B8B
:104F700089B01D461C680194019CE407FAD5424B98
:104F8000DFF80CE1DFF80CC113449B0000241A6821
:104F90000B181E2B88BFC0F11E011F320B185209BF
:104FA0005343B3F5806F82BF4FF48061B1FBF2F1E0
:104FB000091A00F1A05000F52C402746A14233DC2D
:104FC0002B680493049BDB07FAD5304B1B682968D8
:104FD00005910599CF07FAD52D4C2E492360002362
:104FE0001E46934203F1010040D120F001022948FE
:104FF000194600268A423CD8296806910699CE07B0
:10500000FAD525490968286807900798C007FAD596
:105010002160204800210C468B422DD11D490020E3
:105020009A422CD809B0F0BD2B680293029BDB0793
:10503000FAD503199B001B682E680396039EF6079A
:10504000FAD5CEF800300023934203F1010306D1D4
:10505000164623F00103B34204D80134AEE7CCF87E
:105060000070F1E7CCF800700136F4E70E600346FB
:10507000B7E706600131BDE704600131CCE70860A5
:105080000133CDE7B4B0025024AC00147CB0025020
:10509000D4B00250D8B0025078B0025008B540B138
:1050A000202801464FF0070228BF20210020FFF7EB
:1050B0005DFF024B00221A6008BD00BF1CB8025001
:1050C000F0B5294D85B02C462E680096009EF60757
:1050D000FAD500F1A05000F52C408000056820684A
:1050E00001900198C707FAD52048214F056002EBCF
:1050F0008306B24229D15A1C1D4E22F0010200271C
:105100009A4227D823680293029BDE07FAD5194BEF
:105110000B449B001B681F335B099A4213D2216822
:1051200003910399C907FAD5154400219B1A104A27
:10513000056008468B4210D85A1C0D4922F0010226
:1051400000209A420CD805B0F0BD52F804CBC7F845
:1051500000C0CEE737600133D2E710600131E9E7E4
:1051600008600133EDE700BFB4B00250D4B0025084
:10517000D8B0025024AC00142DE9F041814B1D68D9
:1051800098682033A0B01E461A680192019AD7078A
:10519000FAD57D4B7D4A1A6032680292029AD40792
:1051A000FAD57B4A1A607B4A144611680391039929
:1051B000C907FAD5784A1168C1F3402137680497C6
:1051C000049FFF07FAD5754F1F6027680597059F55
:1051D000FF07FAD51768002900F0CF80B90540F124
:1051E000CC80316806910699CF07FAD56C491960D1
:1051F000216807910799C907FAD51168C1F34021C1
:1052000037680897089FFF07FAD5664F1F60276821
:105210000997099FFF07FAD51268002900F0AF80AF
:10522000910540F1AC8032680A920A9AD207FAD509
:10523000564A1A6032680B920B9AD707FAD55A4A27
:105240001A6031680C910C99CC07FAD5574919604E
:1052500031680D910D99C907FAD555491960316822
:105260000E910E99CF07FAD55249196031680F9106
:105270000F99CC07FAD550491960504B1E46196852
:1052800010911099C907FAD53F4C4D4B23603368F4
:105290001193119BDB07FAD54A4B236033681293B5
:1052A000129BDF07FAD5484B23603A4B98461968A2
:1052B00013911399C907FAD5324F386033681493A4
:1052C000149BDB07FAD5226033681593159BD8072A
:1052D000FAD53E4B236033681693169BD907FAD54F
:1052E0003B4B236033681793179BDA07FAD5394B8A
:1052F000236033681893189BDB07FAD5364B23607D
:1053000033681993199BD807FAD5344B2360336857
:105310001A931A9BD907FAD5314B236033681B9334
:105320001B9BDA07FAD52F4B236000F01DFC08BB4E
:10533000D8F800301C931C9BDB07F9D53D6033681F
:105340001D931D9BD907FAD5274B236033681E9305
:105350001E9BDA07FAD5254B2360D8F800301F933F
:105360001F9BDB07F9D50C4B1B6813F4805F204BA8
:1053700008BF184620B0BDE8F0811E48FAE71E4875
:10538000F8E700BF90B0025080B002500010025108
:10539000C01F7229B4B0025088B00250C0CF01299A
:1053A000C01F0E29C03F002940010249003184A8D6
:1053B00000001649400108A180440888B0B002509E
:1053C000C044708880077A41C0077E4100006A4966
:1053D0008006164940006E4900020021008220210B
:1053E000408220218082242140A161A100C8615116
:1053F0000308F1000108F1000208F1002DE9F74F60
:10540000314B44688046924699461A68002AFCD17E
:105410002E4B9B461A68002AFCD14FF0FF300191B9
:1054200000F094FC802000F097FC294D294A2A4F77
:105430002A4E012307202B60A2F59E72C2F83C0180
:105440001360636A3B60A36A3360D8F8003042F8A7
:10545000043CD8F80830204698470199D9F8003024
:10546000002BFBD1BAF1000F20D11D4B04221A6092
:10547000D9F80030002BFBD1DBF800A0BAF1000F07
:10548000FAD1D8F80C30204698473B6863623368FD
:10549000A362144BC3F800A0C3F844A1D9F80030AC
:1054A000002BFBD12B6003B0BDE8F08F236A012BEA
:1054B00004BF0C4A13600C4B40201960C3F804A0D1
:1054C00000F050FCD4E700BF10B9025020BC0250DD
:1054D00018B8025000B90250CCB70250D0B70250F1
:1054E000C8B7025084B6025028BC025010B5544BC5
:1054F00098B019461A680192019AD207FAD5514B11
:10550000514A1A600A680292029AD407FAD54F4AA1
:105510001A600A680392039AD007FAD54C481860BB
:105520000A680492049AD207FAD54A4A1A600A68AD
:105530000592059AD407FAD5474A1A600A68069276
:10554000069AD207FAD5454A1A600A680792079A5E
:10555000D407FAD5424A1A600A680892089AD20714
:10556000FAD5404A1A600A680992099AD407FAD50E
:105570003D4A1A600A680A920A9AD207FAD53B4A4B
:105580001A600A680B920B9AD407FAD5384A1A6047
:105590000A680C920C9AD207FAD5364A1A600A6841
:1055A0000D920D9AD407FAD5334A1A600A680E9202
:1055B0000E9AD207FAD5314A1A600A680F920F9AEA
:1055C000D407FAD52E4A1A600A681092109AD207A8
:1055D000FAD52C4A1A601A4B19461C681194119C72
:1055E000E407FAD5174B1860086812901298C407A0
:1055F000FAD51A600A681392139AD007FAD5124A9C
:105600001A600A681492149AD207FAD51E4A1A60D0
:105610000A681592159AD407FAD51C4A1A600A68C6
:105620001692169AD007FAD5194A1A600A68179284
:10563000179AD207FAD5174A1A6018B010BD00BFE2
:10564000B0B0025080B00250009365210004319048
:10565000409665900083612100C3302100C36490AF
:1056600000816190004610210081112100414421F8
:1056700000C320290C4610C80086312100C36021D8
:1056800040C1282940966521001331904096252974
:10569000594614C84004324910B5494B94B01946D4
:1056A0001A680092009AD207FAD5464B464A1A6009
:1056B0000A680192019AD407FAD5444A1A600A6826
:1056C0000292029AD007FAD5414818600A680392FC
:1056D000039AD207FAD53F4A1A600A680492049ADC
:1056E000D407FAD53C4A1A600A680592059AD2078F
:1056F000FAD53A4A1A600A680692069AD407FAD589
:10570000374A1A600A680792079AD207FAD5354ACB
:105710001A600A680892089AD407FAD5324A1A60C1
:105720000A680992099AD207FAD5304A1A600A68BB
:105730000A920A9AD407FAD52D4A1A600A680B927F
:105740000B9AD207FAD52B4A1A600A680C920C9A67
:10575000D407FAD5284A1A600A680D920D9AD20722
:10576000FAD5264A1A600A680E920E9AD407FAD51C
:10577000234A1A600A680F920F9AD207FAD5214A73
:105780001A600F4B19461C681094109CE407FAD558
:105790000C4B1860086811901198C407FAD51A606C
:1057A0000A681292129AD007FAD5174A1A600A6844
:1057B0001392139AD207FAD5144A1A6014B010BD86
:1057C000B0B0025080B00250809065210004099072
:1057D000409665908080612180200821802064901F
:1057E0000081619000461021008111210041442177
:1057F00080202029024610C80086092180206021CF
:10580000402128294096652140962529594614C8EB
:1058100010B5504B96B01C461A680192019AD207F7
:10582000FAD54D4B4D4A1A6022680292029AD2076D
:10583000FAD54B4A1A604B4A42EA804022680392EA
:10584000039AD207FAD5186022680492049AD00706
:10585000FAD5454A1A60A2F5800242EA81412268DF
:105860000592059AD207FAD5196022680692069A1F
:10587000D007FAD53D4A1A6022680792079AD107E5
:10588000FAD53B4A1A6022680892089AD207FAD5DC
:10589000384A1A6022680992099AD007FAD5364A1E
:1058A0001A6022680A920A9AD107FAD5334A1A6016
:1058B00022680B920B9AD207FAD5314A1A602268F5
:1058C0000C920C9AD007FAD52E4A1A6022680D92D3
:1058D0000D9AD107FAD52C4A1A6022680E920E9AB8
:1058E000D207FAD5294A1A6022680F920F9AD00778
:1058F000FAD5274A1A60216810911099C907FAD57C
:105900001A60144B1A46196811911199C807FAD5F3
:10591000114B20491960116812911299C907FAD5E3
:105920001D491960116813911399CC07FAD50B49D9
:105930001960116814911499C807FAD517491960AC
:10594000116815911599C907FAD5154A1A6016B04C
:1059500010BD00BFB0B0025080B002504004419072
:1059600000862929D81001C84014419040142129EB
:10597000401465210034409000310C90C0400C90E0
:10598000C030202940960D9000416090031645C814
:105990000086112100416021594644C840144590B9
:1059A00040142D9070B5264888B0054604680094D0
:1059B000009CE607FAD52348234C0460234C44EAB4
:1059C00083432C680194019CE407FAD5036093019A
:1059D00043EA824242F0104444F4C0442B680293EC
:1059E000029BDE07FAD504602B680393039BDB0759
:1059F000FAD5174B03608B0143EA814141F0104314
:105A000043F4C0432E680496049EF607FAD503605B
:105A10002B680593059BDE07FAD5046041F05841D9
:105A20002B680693069BDC07FAD5016042F05842CA
:105A30002B680793079BDB07FAD5026008B070BD9F
:105A4000B0B0025080B00250C0210229807100988D
:105A500080611890354B8EB019461A680092009AF2
:105A6000D207FAD5324B334A1A600A680192019A7A
:105A7000D007FAD5304A1A600A680292029AD20711
:105A8000FAD52E4A1A600A680392039AD007FAD50B
:105A90002B4A1A600A680492049AD207FAD5294A56
:105AA0001A600A680592059AD007FAD5264A1A6044
:105AB0000A680692069AD207FAD5244A1A600A683A
:105AC0000792079AD007FAD5214A1A600A68089205
:105AD000089AD207FAD51F4A1A600A680992099AE9
